8=FIX.4.4|9=70|35=A|34=1|49=EXECUTOR|52=20220524-12:37:09.179|56=CLIENT1|98=0|108=30|10=100|8=FIX.4.4|9=67|35=2|34=2|49=EXECUTOR|52=20220524-12:37:09.193|56=CLIENT1|7=1|16=0|10=186|8=FIX.4.4|9=58|35=0|34=3|49=EXECUTOR|52=20220524-12:37:39.780|56=CLIENT1|10=067|